{
  "_format": "hh-sol-artifact-1",
  "contractName": "EscrowMarketplace",
  "sourceName": "contracts/EscrowMarketplace.sol",
  "abi": [
    {
      "inputs": [
        {
          "internalType": "address",
          "name": "_medicalNFT",
          "type": "address"
        },
        {
          "internalType": "address",
          "name": "_treasury",
          "type": "address"
        }
      ],
      "stateMutability": "nonpayable",
      "type": "constructor"
    },
    {
      "anonymous": false,
      "inputs": [
        {
          "indexed": true,
          "internalType": "uint256",
          "name": "orderId",
          "type": "uint256"
        },
        {
          "indexed": false,
          "internalType": "uint256",
          "name": "prescriptionId",
          "type": "uint256"
        },
        {
          "indexed": false,
          "internalType": "address",
          "name": "buyer",
          "type": "address"
        },
        {
          "indexed": false,
          "internalType": "address",
          "name": "pharmacy",
          "type": "address"
        },
        {
          "indexed": false,
          "internalType": "uint256",
          "name": "amount",
          "type": "uint256"
        }
      ],
      "name": "OrderCreated",
      "type": "event"
    },
    {
      "anonymous": false,
      "inputs": [
        {
          "indexed": true,
          "internalType": "uint256",
          "name": "orderId",
          "type": "uint256"
        },
        {
          "indexed": false,
          "internalType": "address",
          "name": "pharmacy",
          "type": "address"
        },
        {
          "indexed": false,
          "internalType": "uint256",
          "name": "amount",
          "type": "uint256"
        }
      ],
      "name": "OrderFulfilled",
      "type": "event"
    },
    {
      "inputs": [],
      "name": "FEE_PERCENT",
      "outputs": [
        {
          "internalType": "uint256",
          "name": "",
          "type": "uint256"
        }
      ],
      "stateMutability": "view",
      "type": "function"
    },
    {
      "inputs": [
        {
          "internalType": "uint256",
          "name": "orderId",
          "type": "uint256"
        }
      ],
      "name": "confirmDelivery",
      "outputs": [],
      "stateMutability": "nonpayable",
      "type": "function"
    },
    {
      "inputs": [
        {
          "internalType": "uint256",
          "name": "prescriptionId",
          "type": "uint256"
        },
        {
          "internalType": "uint256",
          "name": "quantity",
          "type": "uint256"
        },
        {
          "internalType": "address",
          "name": "pharmacy",
          "type": "address"
        }
      ],
      "name": "createOrder",
      "outputs": [],
      "stateMutability": "payable",
      "type": "function"
    },
    {
      "inputs": [],
      "name": "medicalNFT",
      "outputs": [
        {
          "internalType": "contract IERC721",
          "name": "",
          "type": "address"
        }
      ],
      "stateMutability": "view",
      "type": "function"
    },
    {
      "inputs": [],
      "name": "nextOrderId",
      "outputs": [
        {
          "internalType": "uint256",
          "name": "",
          "type": "uint256"
        }
      ],
      "stateMutability": "view",
      "type": "function"
    },
    {
      "inputs": [
        {
          "internalType": "uint256",
          "name": "",
          "type": "uint256"
        }
      ],
      "name": "orders",
      "outputs": [
        {
          "internalType": "uint256",
          "name": "prescriptionId",
          "type": "uint256"
        },
        {
          "internalType": "uint256",
          "name": "quantity",
          "type": "uint256"
        },
        {
          "internalType": "address",
          "name": "buyer",
          "type": "address"
        },
        {
          "internalType": "address",
          "name": "pharmacy",
          "type": "address"
        },
        {
          "internalType": "uint256",
          "name": "amount",
          "type": "uint256"
        },
        {
          "internalType": "bool",
          "name": "fulfilled",
          "type": "bool"
        }
      ],
      "stateMutability": "view",
      "type": "function"
    },
    {
      "inputs": [],
      "name": "treasury",
      "outputs": [
        {
          "internalType": "address",
          "name": "",
          "type": "address"
        }
      ],
      "stateMutability": "view",
      "type": "function"
    }
  ],
  "bytecode": "0x60806040523480156200001157600080fd5b5060405162000fce38038062000fce83398181016040528101906200003791906200012a565b816000806101000a81548173ffffffffffffffffffffffffffffffffffffffff021916908373ffffffffffffffffffffffffffffffffffffffff16021790555080600160006101000a81548173ffffffffffffffffffffffffffffffffffffffff021916908373ffffffffffffffffffffffffffffffffffffffff160217905550505062000171565b600080fd5b600073ffffffffffffffffffffffffffffffffffffffff82169050919050565b6000620000f282620000c5565b9050919050565b6200010481620000e5565b81146200011057600080fd5b50565b6000815190506200012481620000f9565b92915050565b60008060408385031215620001445762000143620000c0565b5b6000620001548582860162000113565b9250506020620001678582860162000113565b9150509250929050565b610e4d80620001816000396000f3fe6080604052600436106100705760003560e01c806361d027b31161004e57806361d027b3146100e7578063a85c38ef14610112578063eaf98d2314610154578063fd84cb971461017f57610070565b806323b70d76146100755780632a58b330146100915780633d314d0e146100bc575b600080fd5b61008f600480360381019061008a919061088f565b6101a8565b005b34801561009d57600080fd5b506100a661048f565b6040516100b391906108f1565b60405180910390f35b3480156100c857600080fd5b506100d1610495565b6040516100de919061096b565b60405180910390f35b3480156100f357600080fd5b506100fc6104b9565b6040516101099190610995565b60405180910390f35b34801561011e57600080fd5b50610139600480360381019061013491906109b0565b6104df565b60405161014b969594939291906109f8565b60405180910390f35b34801561016057600080fd5b50610169610568565b60405161017691906108f1565b60405180910390f35b34801561018b57600080fd5b506101a660048036038101906101a191906109b0565b61056d565b005b3373ffffffffffffffffffffffffffffffffffffffff1660008054906101000a900473ffffffffffffffffffffffffffffffffffffffff1673ffffffffffffffffffffffffffffffffffffffff16636352211e856040518263ffffffff1660e01b815260040161021891906108f1565b602060405180830381865afa158015610235573d6000803e3d6000fd5b505050506040513d601f19601f820116820180604052508101906102599190610a6e565b73ffffffffffffffffffffffffffffffffffffffff16146102af576040517f08c379a00000000000000000000000000000000000000000000000000000000081526004016102a690610af8565b60405180910390fd5b600034116102f2576040517f08c379a00000000000000000000000000000000000000000000000000000000081526004016102e990610b64565b60405180910390fd5b6040518060c001604052808481526020018381526020013373ffffffffffffffffffffffffffffffffffffffff1681526020018273ffffffffffffffffffffffffffffffffffffffff16815260200134815260200160001515815250600260006003548152602001908152602001600020600082015181600001556020820151816001015560408201518160020160006101000a81548173ffffffffffffffffffffffffffffffffffffffff021916908373ffffffffffffffffffffffffffffffffffffffff16021790555060608201518160030160006101000a81548173ffffffffffffffffffffffffffffffffffffffff021916908373ffffffffffffffffffffffffffffffffffffffff1602179055506080820151816004015560a08201518160050160006101000a81548160ff0219169083151502179055509050506003547f49e931e521b3ceb66193af0aefdeddff97d898c2d6b6ba416482c630bcc2f5788433843460405161046a9493929190610b84565b60405180910390a26003600081548092919061048590610bf8565b9190505550505050565b60035481565b60008054906101000a900473ffffffffffffffffffffffffffffffffffffffff1681565b600160009054906101000a900473ffffffffffffffffffffffffffffffffffffffff1681565b60026020528060005260406000206000915090508060000154908060010154908060020160009054906101000a900473ffffffffffffffffffffffffffffffffffffffff16908060030160009054906101000a900473ffffffffffffffffffffffffffffffffffffffff16908060040154908060050160009054906101000a900460ff16905086565b600281565b60006002600083815260200190815260200160002090508060030160009054906101000a900473ffffffffffffffffffffffffffffffffffffffff1673ffffffffffffffffffffffffffffffffffffffff163373ffffffffffffffffffffffffffffffffffffffff1614610616576040517f08c379a000000000000000000000000000000000000000000000000000000000815260040161060d90610c8c565b60405180910390fd5b8060050160009054906101000a900460ff1615610668576040517f08c379a000000000000000000000000000000000000000000000000000000000815260040161065f90610cf8565b60405180910390fd5b60018160050160006101000a81548160ff021916908315150217905550600060646002836004015461069a9190610d18565b6106a49190610d89565b905060008183600401546106b89190610dba565b9050600160009054906101000a900473ffffffffffffffffffffffffffffffffffffffff1673ffffffffffffffffffffffffffffffffffffffff166108fc839081150290604051600060405180830381858888f19350505050158015610722573d6000803e3d6000fd5b508260030160009054906101000a900473ffffffffffffffffffffffffffffffffffffffff1673ffffffffffffffffffffffffffffffffffffffff166108fc829081150290604051600060405180830381858888f1935050505015801561078d573d6000803e3d6000fd5b50837fcb3dc2a21e2f5a2d47f2012a02e3d088725e88da087b62c693f98dedac2733348460030160009054906101000a900473ffffffffffffffffffffffffffffffffffffffff1685600401546040516107e8929190610dee565b60405180910390a250505050565b600080fd5b6000819050919050565b61080e816107fb565b811461081957600080fd5b50565b60008135905061082b81610805565b92915050565b600073ffffffffffffffffffffffffffffffffffffffff82169050919050565b600061085c82610831565b9050919050565b61086c81610851565b811461087757600080fd5b50565b60008135905061088981610863565b92915050565b6000806000606084860312156108a8576108a76107f6565b5b60006108b68682870161081c565b93505060206108c78682870161081c565b92505060406108d88682870161087a565b9150509250925092565b6108eb816107fb565b82525050565b600060208201905061090660008301846108e2565b92915050565b6000819050919050565b600061093161092c61092784610831565b61090c565b610831565b9050919050565b600061094382610916565b9050919050565b600061095582610938565b9050919050565b6109658161094a565b82525050565b6000602082019050610980600083018461095c565b92915050565b61098f81610851565b82525050565b60006020820190506109aa6000830184610986565b92915050565b6000602082840312156109c6576109c56107f6565b5b60006109d48482850161081c565b91505092915050565b60008115159050919050565b6109f2816109dd565b82525050565b600060c082019050610a0d60008301896108e2565b610a1a60208301886108e2565b610a276040830187610986565b610a346060830186610986565b610a4160808301856108e2565b610a4e60a08301846109e9565b979650505050505050565b600081519050610a6881610863565b92915050565b600060208284031215610a8457610a836107f6565b5b6000610a9284828501610a59565b91505092915050565b600082825260208201905092915050565b7f4e6f7420707265736372697074696f6e206f776e657200000000000000000000600082015250565b6000610ae2601683610a9b565b9150610aed82610aac565b602082019050919050565b60006020820190508181036000830152610b1181610ad5565b9050919050565b7f416d6f756e74206d757374206265203e20300000000000000000000000000000600082015250565b6000610b4e601283610a9b565b9150610b5982610b18565b602082019050919050565b60006020820190508181036000830152610b7d81610b41565b9050919050565b6000608082019050610b9960008301876108e2565b610ba66020830186610986565b610bb36040830185610986565b610bc060608301846108e2565b95945050505050565b7f4e487b7100000000000000000000000000000000000000000000000000000000600052601160045260246000fd5b6000610c03826107fb565b91507fffffffffffffffffffffffffffffffffffffffffffffffffffffffffffffffff8203610c3557610c34610bc9565b5b600182019050919050565b7f4f6e6c7920706861726d6163792063616e20636f6e6669726d00000000000000600082015250565b6000610c76601983610a9b565b9150610c8182610c40565b602082019050919050565b60006020820190508181036000830152610ca581610c69565b9050919050565b7f416c72656164792066756c66696c6c6564000000000000000000000000000000600082015250565b6000610ce2601183610a9b565b9150610ced82610cac565b602082019050919050565b60006020820190508181036000830152610d1181610cd5565b9050919050565b6000610d23826107fb565b9150610d2e836107fb565b9250828202610d3c816107fb565b91508282048414831517610d5357610d52610bc9565b5b5092915050565b7f4e487b7100000000000000000000000000000000000000000000000000000000600052601260045260246000fd5b6000610d94826107fb565b9150610d9f836107fb565b925082610daf57610dae610d5a565b5b828204905092915050565b6000610dc5826107fb565b9150610dd0836107fb565b9250828203905081811115610de857610de7610bc9565b5b92915050565b6000604082019050610e036000830185610986565b610e1060208301846108e2565b939250505056fea2646970667358221220a32d7a82c7b39abe9c3b2f445af91e686beac09f7b09277f06c6cf3fb3d7768464736f6c63430008140033",
  "linkReferences": {},
  "deployedLinkReferences": {}
}