{
  "_format": "hh-sol-artifact-1",
  "contractName": "MedicalNFT",
  "sourceName": "contracts/MedicalNFT.sol",
  "abi": [
    {
      "inputs": [],
      "stateMutability": "nonpayable",
      "type": "constructor"
    },
    {
      "inputs": [],
      "name": "AccessControlBadConfirmation",
      "type": "error"
    },
    {
      "inputs": [
        {
          "internalType": "address",
          "name": "account",
          "type": "address"
        },
        {
          "internalType": "bytes32",
          "name": "neededRole",
          "type": "bytes32"
        }
      ],
      "name": "AccessControlUnauthorizedAccount",
      "type": "error"
    },
    {
      "inputs": [
        {
          "internalType": "address",
          "name": "sender",
          "type": "address"
        },
        {
          "internalType": "uint256",
          "name": "tokenId",
          "type": "uint256"
        },
        {
          "internalType": "address",
          "name": "owner",
          "type": "address"
        }
      ],
      "name": "ERC721IncorrectOwner",
      "type": "error"
    },
    {
      "inputs": [
        {
          "internalType": "address",
          "name": "operator",
          "type": "address"
        },
        {
          "internalType": "uint256",
          "name": "tokenId",
          "type": "uint256"
        }
      ],
      "name": "ERC721InsufficientApproval",
      "type": "error"
    },
    {
      "inputs": [
        {
          "internalType": "address",
          "name": "approver",
          "type": "address"
        }
      ],
      "name": "ERC721InvalidApprover",
      "type": "error"
    },
    {
      "inputs": [
        {
          "internalType": "address",
          "name": "operator",
          "type": "address"
        }
      ],
      "name": "ERC721InvalidOperator",
      "type": "error"
    },
    {
      "inputs": [
        {
          "internalType": "address",
          "name": "owner",
          "type": "address"
        }
      ],
      "name": "ERC721InvalidOwner",
      "type": "error"
    },
    {
      "inputs": [
        {
          "internalType": "address",
          "name": "receiver",
          "type": "address"
        }
      ],
      "name": "ERC721InvalidReceiver",
      "type": "error"
    },
    {
      "inputs": [
        {
          "internalType": "address",
          "name": "sender",
          "type": "address"
        }
      ],
      "name": "ERC721InvalidSender",
      "type": "error"
    },
    {
      "inputs": [
        {
          "internalType": "uint256",
          "name": "tokenId",
          "type": "uint256"
        }
      ],
      "name": "ERC721NonexistentToken",
      "type": "error"
    },
    {
      "anonymous": false,
      "inputs": [
        {
          "indexed": true,
          "internalType": "address",
          "name": "owner",
          "type": "address"
        },
        {
          "indexed": true,
          "internalType": "address",
          "name": "approved",
          "type": "address"
        },
        {
          "indexed": true,
          "internalType": "uint256",
          "name": "tokenId",
          "type": "uint256"
        }
      ],
      "name": "Approval",
      "type": "event"
    },
    {
      "anonymous": false,
      "inputs": [
        {
          "indexed": true,
          "internalType": "address",
          "name": "owner",
          "type": "address"
        },
        {
          "indexed": true,
          "internalType": "address",
          "name": "operator",
          "type": "address"
        },
        {
          "indexed": false,
          "internalType": "bool",
          "name": "approved",
          "type": "bool"
        }
      ],
      "name": "ApprovalForAll",
      "type": "event"
    },
    {
      "anonymous": false,
      "inputs": [
        {
          "indexed": true,
          "internalType": "uint256",
          "name": "tokenId",
          "type": "uint256"
        },
        {
          "indexed": true,
          "internalType": "address",
          "name": "doctor",
          "type": "address"
        }
      ],
      "name": "CoOwnershipGranted",
      "type": "event"
    },
    {
      "anonymous": false,
      "inputs": [
        {
          "indexed": true,
          "internalType": "uint256",
          "name": "tokenId",
          "type": "uint256"
        },
        {
          "indexed": true,
          "internalType": "address",
          "name": "patient",
          "type": "address"
        },
        {
          "indexed": true,
          "internalType": "address",
          "name": "doctor",
          "type": "address"
        }
      ],
      "name": "MedicalRecordMinted",
      "type": "event"
    },
    {
      "anonymous": false,
      "inputs": [
        {
          "indexed": true,
          "internalType": "bytes32",
          "name": "role",
          "type": "bytes32"
        },
        {
          "indexed": true,
          "internalType": "bytes32",
          "name": "previousAdminRole",
          "type": "bytes32"
        },
        {
          "indexed": true,
          "internalType": "bytes32",
          "name": "newAdminRole",
          "type": "bytes32"
        }
      ],
      "name": "RoleAdminChanged",
      "type": "event"
    },
    {
      "anonymous": false,
      "inputs": [
        {
          "indexed": true,
          "internalType": "bytes32",
          "name": "role",
          "type": "bytes32"
        },
        {
          "indexed": true,
          "internalType": "address",
          "name": "account",
          "type": "address"
        },
        {
          "indexed": true,
          "internalType": "address",
          "name": "sender",
          "type": "address"
        }
      ],
      "name": "RoleGranted",
      "type": "event"
    },
    {
      "anonymous": false,
      "inputs": [
        {
          "indexed": true,
          "internalType": "bytes32",
          "name": "role",
          "type": "bytes32"
        },
        {
          "indexed": true,
          "internalType": "address",
          "name": "account",
          "type": "address"
        },
        {
          "indexed": true,
          "internalType": "address",
          "name": "sender",
          "type": "address"
        }
      ],
      "name": "RoleRevoked",
      "type": "event"
    },
    {
      "anonymous": false,
      "inputs": [
        {
          "indexed": true,
          "internalType": "address",
          "name": "from",
          "type": "address"
        },
        {
          "indexed": true,
          "internalType": "address",
          "name": "to",
          "type": "address"
        },
        {
          "indexed": true,
          "internalType": "uint256",
          "name": "tokenId",
          "type": "uint256"
        }
      ],
      "name": "Transfer",
      "type": "event"
    },
    {
      "inputs": [],
      "name": "DEFAULT_ADMIN_ROLE",
      "outputs": [
        {
          "internalType": "bytes32",
          "name": "",
          "type": "bytes32"
        }
      ],
      "stateMutability": "view",
      "type": "function"
    },
    {
      "inputs": [],
      "name": "DOCTOR_ROLE",
      "outputs": [
        {
          "internalType": "bytes32",
          "name": "",
          "type": "bytes32"
        }
      ],
      "stateMutability": "view",
      "type": "function"
    },
    {
      "inputs": [
        {
          "internalType": "address",
          "name": "to",
          "type": "address"
        },
        {
          "internalType": "uint256",
          "name": "tokenId",
          "type": "uint256"
        }
      ],
      "name": "approve",
      "outputs": [],
      "stateMutability": "nonpayable",
      "type": "function"
    },
    {
      "inputs": [
        {
          "internalType": "address",
          "name": "owner",
          "type": "address"
        }
      ],
      "name": "balanceOf",
      "outputs": [
        {
          "internalType": "uint256",
          "name": "",
          "type": "uint256"
        }
      ],
      "stateMutability": "view",
      "type": "function"
    },
    {
      "inputs": [
        {
          "internalType": "uint256",
          "name": "",
          "type": "uint256"
        },
        {
          "internalType": "uint256",
          "name": "",
          "type": "uint256"
        }
      ],
      "name": "coOwners",
      "outputs": [
        {
          "internalType": "address",
          "name": "",
          "type": "address"
        }
      ],
      "stateMutability": "view",
      "type": "function"
    },
    {
      "inputs": [
        {
          "internalType": "uint256",
          "name": "",
          "type": "uint256"
        }
      ],
      "name": "encryptedDataHash",
      "outputs": [
        {
          "internalType": "bytes32",
          "name": "",
          "type": "bytes32"
        }
      ],
      "stateMutability": "view",
      "type": "function"
    },
    {
      "inputs": [
        {
          "internalType": "uint256",
          "name": "tokenId",
          "type": "uint256"
        }
      ],
      "name": "getApproved",
      "outputs": [
        {
          "internalType": "address",
          "name": "",
          "type": "address"
        }
      ],
      "stateMutability": "view",
      "type": "function"
    },
    {
      "inputs": [
        {
          "internalType": "uint256",
          "name": "tokenId",
          "type": "uint256"
        }
      ],
      "name": "getCoOwners",
      "outputs": [
        {
          "internalType": "address[]",
          "name": "",
          "type": "address[]"
        }
      ],
      "stateMutability": "view",
      "type": "function"
    },
    {
      "inputs": [
        {
          "internalType": "bytes32",
          "name": "role",
          "type": "bytes32"
        }
      ],
      "name": "getRoleAdmin",
      "outputs": [
        {
          "internalType": "bytes32",
          "name": "",
          "type": "bytes32"
        }
      ],
      "stateMutability": "view",
      "type": "function"
    },
    {
      "inputs": [
        {
          "internalType": "uint256",
          "name": "tokenId",
          "type": "uint256"
        },
        {
          "internalType": "address",
          "name": "doctor",
          "type": "address"
        }
      ],
      "name": "grantCoOwnership",
      "outputs": [],
      "stateMutability": "nonpayable",
      "type": "function"
    },
    {
      "inputs": [
        {
          "internalType": "bytes32",
          "name": "role",
          "type": "bytes32"
        },
        {
          "internalType": "address",
          "name": "account",
          "type": "address"
        }
      ],
      "name": "grantRole",
      "outputs": [],
      "stateMutability": "nonpayable",
      "type": "function"
    },
    {
      "inputs": [
        {
          "internalType": "uint256",
          "name": "tokenId",
          "type": "uint256"
        },
        {
          "internalType": "address",
          "name": "user",
          "type": "address"
        }
      ],
      "name": "hasAccess",
      "outputs": [
        {
          "internalType": "bool",
          "name": "",
          "type": "bool"
        }
      ],
      "stateMutability": "view",
      "type": "function"
    },
    {
      "inputs": [
        {
          "internalType": "bytes32",
          "name": "role",
          "type": "bytes32"
        },
        {
          "internalType": "address",
          "name": "account",
          "type": "address"
        }
      ],
      "name": "hasRole",
      "outputs": [
        {
          "internalType": "bool",
          "name": "",
          "type": "bool"
        }
      ],
      "stateMutability": "view",
      "type": "function"
    },
    {
      "inputs": [
        {
          "internalType": "address",
          "name": "owner",
          "type": "address"
        },
        {
          "internalType": "address",
          "name": "operator",
          "type": "address"
        }
      ],
      "name": "isApprovedForAll",
      "outputs": [
        {
          "internalType": "bool",
          "name": "",
          "type": "bool"
        }
      ],
      "stateMutability": "view",
      "type": "function"
    },
    {
      "inputs": [
        {
          "internalType": "address",
          "name": "patient",
          "type": "address"
        },
        {
          "internalType": "string",
          "name": "dataHashStr",
          "type": "string"
        },
        {
          "internalType": "address[]",
          "name": "authorizedDoctors",
          "type": "address[]"
        }
      ],
      "name": "mintMedicalRecord",
      "outputs": [],
      "stateMutability": "nonpayable",
      "type": "function"
    },
    {
      "inputs": [],
      "name": "name",
      "outputs": [
        {
          "internalType": "string",
          "name": "",
          "type": "string"
        }
      ],
      "stateMutability": "view",
      "type": "function"
    },
    {
      "inputs": [
        {
          "internalType": "uint256",
          "name": "tokenId",
          "type": "uint256"
        }
      ],
      "name": "ownerOf",
      "outputs": [
        {
          "internalType": "address",
          "name": "",
          "type": "address"
        }
      ],
      "stateMutability": "view",
      "type": "function"
    },
    {
      "inputs": [
        {
          "internalType": "bytes32",
          "name": "role",
          "type": "bytes32"
        },
        {
          "internalType": "address",
          "name": "callerConfirmation",
          "type": "address"
        }
      ],
      "name": "renounceRole",
      "outputs": [],
      "stateMutability": "nonpayable",
      "type": "function"
    },
    {
      "inputs": [
        {
          "internalType": "bytes32",
          "name": "role",
          "type": "bytes32"
        },
        {
          "internalType": "address",
          "name": "account",
          "type": "address"
        }
      ],
      "name": "revokeRole",
      "outputs": [],
      "stateMutability": "nonpayable",
      "type": "function"
    },
    {
      "inputs": [
        {
          "internalType": "address",
          "name": "from",
          "type": "address"
        },
        {
          "internalType": "address",
          "name": "to",
          "type": "address"
        },
        {
          "internalType": "uint256",
          "name": "tokenId",
          "type": "uint256"
        }
      ],
      "name": "safeTransferFrom",
      "outputs": [],
      "stateMutability": "nonpayable",
      "type": "function"
    },
    {
      "inputs": [
        {
          "internalType": "address",
          "name": "from",
          "type": "address"
        },
        {
          "internalType": "address",
          "name": "to",
          "type": "address"
        },
        {
          "internalType": "uint256",
          "name": "tokenId",
          "type": "uint256"
        },
        {
          "internalType": "bytes",
          "name": "data",
          "type": "bytes"
        }
      ],
      "name": "safeTransferFrom",
      "outputs": [],
      "stateMutability": "nonpayable",
      "type": "function"
    },
    {
      "inputs": [
        {
          "internalType": "address",
          "name": "operator",
          "type": "address"
        },
        {
          "internalType": "bool",
          "name": "approved",
          "type": "bool"
        }
      ],
      "name": "setApprovalForAll",
      "outputs": [],
      "stateMutability": "nonpayable",
      "type": "function"
    },
    {
      "inputs": [
        {
          "internalType": "bytes4",
          "name": "interfaceId",
          "type": "bytes4"
        }
      ],
      "name": "supportsInterface",
      "outputs": [
        {
          "internalType": "bool",
          "name": "",
          "type": "bool"
        }
      ],
      "stateMutability": "view",
      "type": "function"
    },
    {
      "inputs": [],
      "name": "symbol",
      "outputs": [
        {
          "internalType": "string",
          "name": "",
          "type": "string"
        }
      ],
      "stateMutability": "view",
      "type": "function"
    },
    {
      "inputs": [
        {
          "internalType": "uint256",
          "name": "tokenId",
          "type": "uint256"
        }
      ],
      "name": "tokenURI",
      "outputs": [
        {
          "internalType": "string",
          "name": "",
          "type": "string"
        }
      ],
      "stateMutability": "view",
      "type": "function"
    },
    {
      "inputs": [
        {
          "internalType": "address",
          "name": "from",
          "type": "address"
        },
        {
          "internalType": "address",
          "name": "to",
          "type": "address"
        },
        {
          "internalType": "uint256",
          "name": "tokenId",
          "type": "uint256"
        }
      ],
      "name": "transferFrom",
      "outputs": [],
      "stateMutability": "nonpayable",
      "type": "function"
    }
  ],
  "bytecode": "0x60806040523480156200001157600080fd5b506040518060400160405280600a81526020017f4d65646963616c4e4654000000000000000000000000000000000000000000008152506040518060400160405280600381526020017f4d4544000000000000000000000000000000000000000000000000000000000081525081600090816200008f9190620004e4565b508060019081620000a19190620004e4565b505050620000b96000801b33620000f360201b60201c565b50620000ec7f0af1dac7dea2fd7f7738119cec7df099dfad49aa9d2e7d17ba6b60f63ae7411f33620000f360201b60201c565b50620005cb565b6000620001078383620001f760201b60201c565b620001ec5760016006600085815260200190815260200160002060000160008473ffffffffffffffffffffffffffffffffffffffff1673ffffffffffffffffffffffffffffffffffffffff16815260200190815260200160002060006101000a81548160ff021916908315150217905550620001886200026260201b60201c565b73ffffffffffffffffffffffffffffffffffffffff168273ffffffffffffffffffffffffffffffffffffffff16847f2f8788117e7eff1d82e926ec794901d17c78024a50270940304540a733656f0d60405160405180910390a460019050620001f1565b600090505b92915050565b60006006600084815260200190815260200160002060000160008373ffffffffffffffffffffffffffffffffffffffff1673ffffffffffffffffffffffffffffffffffffffff16815260200190815260200160002060009054906101000a900460ff16905092915050565b600033905090565b600081519050919050565b7f4e487b7100000000000000000000000000000000000000000000000000000000600052604160045260246000fd5b7f4e487b7100000000000000000000000000000000000000000000000000000000600052602260045260246000fd5b60006002820490506001821680620002ec57607f821691505b602082108103620003025762000301620002a4565b5b50919050565b60008190508160005260206000209050919050565b60006020601f8301049050919050565b600082821b905092915050565b6000600883026200036c7fffffffffffffffffffffffffffffffffffffffffffffffffffffffffffffffff826200032d565b6200037886836200032d565b95508019841693508086168417925050509392505050565b6000819050919050565b6000819050919050565b6000620003c5620003bf620003b98462000390565b6200039a565b62000390565b9050919050565b6000819050919050565b620003e183620003a4565b620003f9620003f082620003cc565b8484546200033a565b825550505050565b600090565b6200041062000401565b6200041d818484620003d6565b505050565b5b8181101562000445576200043960008262000406565b60018101905062000423565b5050565b601f82111562000494576200045e8162000308565b62000469846200031d565b8101602085101562000479578190505b6200049162000488856200031d565b83018262000422565b50505b505050565b600082821c905092915050565b6000620004b96000198460080262000499565b1980831691505092915050565b6000620004d48383620004a6565b9150826002028217905092915050565b620004ef826200026a565b67ffffffffffffffff8111156200050b576200050a62000275565b5b620005178254620002d3565b6200052482828562000449565b600060209050601f8311600181146200055c576000841562000547578287015190505b620005538582620004c6565b865550620005c3565b601f1984166200056c8662000308565b60005b8281101562000596578489015182556001820191506020850194506020810190506200056f565b86831015620005b65784890151620005b2601f891682620004a6565b8355505b6001600288020188555050505b505050505050565b61306d80620005db6000396000f3fe608060405234801561001057600080fd5b506004361061018e5760003560e01c80636352211e116100de578063a22cb46511610097578063ced1419811610071578063ced14198146104c9578063d547741f146104f9578063e985e9c514610515578063fec331f2146105455761018e565b8063a22cb46514610461578063b88d4fde1461047d578063c87b56dd146104995761018e565b80636352211e1461037957806370a08231146103a957806391d14854146103d957806392f6b8831461040957806395d89b4114610425578063a217fddf146104435761018e565b8063188103551161014b5780632f2ff15d116101255780632f2ff15d146102f5578063320b43561461031157806336568abe1461034157806342842e0e1461035d5761018e565b8063188103551461027957806323b872dd146102a9578063248a9ca3146102c55761018e565b806301ffc9a71461019357806306fdde03146101c3578063081812fc146101e1578063095ea7b3146102115780630d8eda9d1461022d5780631380aae614610249575b600080fd5b6101ad60048036038101906101a891906122b2565b610563565b6040516101ba91906122fa565b60405180910390f35b6101cb610575565b6040516101d891906123a5565b60405180910390f35b6101fb60048036038101906101f691906123fd565b610607565b604051610208919061246b565b60405180910390f35b61022b600480360381019061022691906124b2565b610623565b005b610247600480360381019061024291906124f2565b610639565b005b610263600480360381019061025e91906123fd565b61076b565b604051610270919061254b565b60405180910390f35b610293600480360381019061028e91906123fd565b610783565b6040516102a09190612624565b60405180910390f35b6102c360048036038101906102be9190612646565b610824565b005b6102df60048036038101906102da91906126c5565b610926565b6040516102ec919061254b565b60405180910390f35b61030f600480360381019061030a91906126f2565b610946565b005b61032b60048036038101906103269190612732565b610968565b604051610338919061246b565b60405180910390f35b61035b600480360381019061035691906126f2565b6109b6565b005b61037760048036038101906103729190612646565b610a31565b005b610393600480360381019061038e91906123fd565b610a51565b6040516103a0919061246b565b60405180910390f35b6103c360048036038101906103be9190612772565b610a63565b6040516103d091906127ae565b60405180910390f35b6103f360048036038101906103ee91906126f2565b610b1d565b60405161040091906122fa565b60405180910390f35b610423600480360381019061041e91906129c6565b610b88565b005b61042d610c74565b60405161043a91906123a5565b60405180910390f35b61044b610d06565b604051610458919061254b565b60405180910390f35b61047b60048036038101906104769190612a7d565b610d0d565b005b61049760048036038101906104929190612b5e565b610d23565b005b6104b360048036038101906104ae91906123fd565b610d48565b6040516104c091906123a5565b60405180910390f35b6104e360048036038101906104de91906124f2565b610db1565b6040516104f091906122fa565b60405180910390f35b610513600480360381019061050e91906126f2565b610f17565b005b61052f600480360381019061052a9190612be1565b610f39565b60405161053c91906122fa565b60405180910390f35b61054d610fcd565b60405161055a919061254b565b60405180910390f35b600061056e82610ff1565b9050919050565b60606000805461058490612c50565b80601f01602080910402602001604051908101604052809291908181526020018280546105b090612c50565b80156105fd5780601f106105d2576101008083540402835291602001916105fd565b820191906000526020600020905b8154815290600101906020018083116105e057829003601f168201915b5050505050905090565b60006106128261106b565b5061061c826110f3565b9050919050565b6106358282610630611130565b611138565b5050565b3373ffffffffffffffffffffffffffffffffffffffff1661065983610a51565b73ffffffffffffffffffffffffffffffffffffffff16146106af576040517f08c379a00000000000000000000000000000000000000000000000000000000081526004016106a690612ccd565b60405180910390fd5b60086000838152602001908152602001600020819080600181540180825580915050600190039060005260206000200160009091909190916101000a81548173ffffffffffffffffffffffffffffffffffffffff021916908373ffffffffffffffffffffffffffffffffffffffff1602179055508073ffffffffffffffffffffffffffffffffffffffff16827f66c0cef16faa8801fb46c68d5cc6867616986bd4f830424aa3937b38ed377d5860405160405180910390a35050565b60096020528060005260406000206000915090505481565b60606008600083815260200190815260200160002080548060200260200160405190810160405280929190818152602001828054801561081857602002820191906000526020600020905b8160009054906101000a900473ffffffffffffffffffffffffffffffffffffffff1673ffffffffffffffffffffffffffffffffffffffff16815260200190600101908083116107ce575b50505050509050919050565b600073ffffffffffffffffffffffffffffffffffffffff168273ffffffffffffffffffffffffffffffffffffffff16036108965760006040517f64a0ae9200000000000000000000000000000000000000000000000000000000815260040161088d919061246b565b60405180910390fd5b60006108aa83836108a5611130565b61114a565b90508373ffffffffffffffffffffffffffffffffffffffff168173ffffffffffffffffffffffffffffffffffffffff1614610920578382826040517f64283d7b00000000000000000000000000000000000000000000000000000000815260040161091793929190612ced565b60405180910390fd5b50505050565b600060066000838152602001908152602001600020600101549050919050565b61094f82610926565b61095881611217565b610962838361122b565b50505050565b6008602052816000526040600020818154811061098457600080fd5b906000526020600020016000915091509054906101000a900473ffffffffffffffffffffffffffffffffffffffff1681565b6109be611130565b73ffffffffffffffffffffffffffffffffffffffff168173ffffffffffffffffffffffffffffffffffffffff1614610a22576040517f6697b23200000000000000000000000000000000000000000000000000000000815260040160405180910390fd5b610a2c828261131d565b505050565b610a4c83838360405180602001604052806000815250610d23565b505050565b6000610a5c8261106b565b9050919050565b60008073ffffffffffffffffffffffffffffffffffffffff168273ffffffffffffffffffffffffffffffffffffffff1603610ad65760006040517f89c62b64000000000000000000000000000000000000000000000000000000008152600401610acd919061246b565b60405180910390fd5b600360008373ffffffffffffffffffffffffffffffffffffffff1673ffffffffffffffffffffffffffffffffffffffff168152602001908152602001600020549050919050565b60006006600084815260200190815260200160002060000160008373ffffffffffffffffffffffffffffffffffffffff1673ffffffffffffffffffffffffffffffffffffffff16815260200190815260200160002060009054906101000a900460ff16905092915050565b600060076000815480929190610b9d90612d53565b919050559050610bad8482611410565b81600860008381526020019081526020016000209080519060200190610bd492919061219f565b5082604051602001610be69190612dd7565b6040516020818303038152906040528051906020012060096000838152602001908152602001600020819055503373ffffffffffffffffffffffffffffffffffffffff168473ffffffffffffffffffffffffffffffffffffffff16827f3b20df32e55e4e5d1a906fdfe6341eea0ffcf4ac43bd043d60beda3c8854a29260405160405180910390a450505050565b606060018054610c8390612c50565b80601f0160208091040260200160405190810160405280929190818152602001828054610caf90612c50565b8015610cfc5780601f10610cd157610100808354040283529160200191610cfc565b820191906000526020600020905b815481529060010190602001808311610cdf57829003601f168201915b5050505050905090565b6000801b81565b610d1f610d18611130565b8383611509565b5050565b610d2e848484610824565b610d42610d39611130565b85858585611678565b50505050565b6060610d538261106b565b506000610d5e611829565b90506000815111610d7e5760405180602001604052806000815250610da9565b80610d8884611840565b604051602001610d99929190612dee565b6040516020818303038152906040525b915050919050565b60008173ffffffffffffffffffffffffffffffffffffffff16610dd384610a51565b73ffffffffffffffffffffffffffffffffffffffff1603610df75760019050610f11565b600060086000858152602001908152602001600020805480602002602001604051908101604052809291908181526020018280548015610e8c57602002820191906000526020600020905b8160009054906101000a900473ffffffffffffffffffffffffffffffffffffffff1673ffffffffffffffffffffffffffffffffffffffff1681526020019060010190808311610e42575b5050505050905060005b8151811015610f0a578373ffffffffffffffffffffffffffffffffffffffff16828281518110610ec957610ec8612e12565b5b602002602001015173ffffffffffffffffffffffffffffffffffffffff1603610ef757600192505050610f11565b8080610f0290612d53565b915050610e96565b5060009150505b92915050565b610f2082610926565b610f2981611217565b610f33838361131d565b50505050565b6000600560008473ffffffffffffffffffffffffffffffffffffffff1673ffffffffffffffffffffffffffffffffffffffff16815260200190815260200160002060008373ffffffffffffffffffffffffffffffffffffffff1673ffffffffffffffffffffffffffffffffffffffff16815260200190815260200160002060009054906101000a900460ff16905092915050565b7f0af1dac7dea2fd7f7738119cec7df099dfad49aa9d2e7d17ba6b60f63ae7411f81565b60007f7965db0b000000000000000000000000000000000000000000000000000000007bffffffffffffffffffffffffffffffffffffffffffffffffffffffff1916827bffffffffffffffffffffffffffffffffffffffffffffffffffffffff1916148061106457506110638261190e565b5b9050919050565b600080611077836119f0565b9050600073ffffffffffffffffffffffffffffffffffffffff168173ffffffffffffffffffffffffffffffffffffffff16036110ea57826040517f7e2732890000000000000000000000000000000000000000000000000000000081526004016110e191906127ae565b60405180910390fd5b80915050919050565b60006004600083815260200190815260200160002060009054906101000a900473ffffffffffffffffffffffffffffffffffffffff169050919050565b600033905090565b6111458383836001611a2d565b505050565b600080611156846119f0565b9050600073ffffffffffffffffffffffffffffffffffffffff168173ffffffffffffffffffffffffffffffffffffffff16141580156111c25750600073ffffffffffffffffffffffffffffffffffffffff168573ffffffffffffffffffffffffffffffffffffffff1614155b15611202576040517f08c379a00000000000000000000000000000000000000000000000000000000081526004016111f990612eb3565b60405180910390fd5b61120d858585611bf2565b9150509392505050565b61122881611223611130565b611e0c565b50565b60006112378383610b1d565b6113125760016006600085815260200190815260200160002060000160008473ffffffffffffffffffffffffffffffffffffffff1673ffffffffffffffffffffffffffffffffffffffff16815260200190815260200160002060006101000a81548160ff0219169083151502179055506112af611130565b73ffffffffffffffffffffffffffffffffffffffff168273ffffffffffffffffffffffffffffffffffffffff16847f2f8788117e7eff1d82e926ec794901d17c78024a50270940304540a733656f0d60405160405180910390a460019050611317565b600090505b92915050565b60006113298383610b1d565b156114055760006006600085815260200190815260200160002060000160008473ffffffffffffffffffffffffffffffffffffffff1673ffffffffffffffffffffffffffffffffffffffff16815260200190815260200160002060006101000a81548160ff0219169083151502179055506113a2611130565b73ffffffffffffffffffffffffffffffffffffffff168273ffffffffffffffffffffffffffffffffffffffff16847ff6391f5c32d9c69d2a47ea670b442974b53935d1edc7fd64eb21e047a839171b60405160405180910390a46001905061140a565b600090505b92915050565b600073ffffffffffffffffffffffffffffffffffffffff168273ffffffffffffffffffffffffffffffffffffffff16036114825760006040517f64a0ae92000000000000000000000000000000000000000000000000000000008152600401611479919061246b565b60405180910390fd5b60006114908383600061114a565b9050600073ffffffffffffffffffffffffffffffffffffffff168173ffffffffffffffffffffffffffffffffffffffff16146115045760006040517f73c6ac6e0000000000000000000000000000000000000000000000000000000081526004016114fb919061246b565b60405180910390fd5b505050565b600073ffffffffffffffffffffffffffffffffffffffff168273ffffffffffffffffffffffffffffffffffffffff160361157a57816040517f5b08ba18000000000000000000000000000000000000000000000000000000008152600401611571919061246b565b60405180910390fd5b80600560008573ffffffffffffffffffffffffffffffffffffffff1673ffffffffffffffffffffffffffffffffffffffff16815260200190815260200160002060008473ffffffffffffffffffffffffffffffffffffffff1673ffffffffffffffffffffffffffffffffffffffff16815260200190815260200160002060006101000a81548160ff0219169083151502179055508173ffffffffffffffffffffffffffffffffffffffff168373ffffffffffffffffffffffffffffffffffffffff167f17307eab39ab6107e8899845ad3d59bd9653f200f220920489ca2b5937696c318360405161166b91906122fa565b60405180910390a3505050565b60008373ffffffffffffffffffffffffffffffffffffffff163b1115611822578273ffffffffffffffffffffffffffffffffffffffff1663150b7a02868685856040518563ffffffff1660e01b81526004016116d79493929190612f28565b6020604051808303816000875af192505050801561171357506040513d601f19601f820116820180604052508101906117109190612f89565b60015b611797573d8060008114611743576040519150601f19603f3d011682016040523d82523d6000602084013e611748565b606091505b50600081510361178f57836040517f64a0ae92000000000000000000000000000000000000000000000000000000008152600401611786919061246b565b60405180910390fd5b805160208201fd5b63150b7a0260e01b7bffffffffffffffffffffffffffffffffffffffffffffffffffffffff1916817bffffffffffffffffffffffffffffffffffffffffffffffffffffffff19161461182057836040517f64a0ae92000000000000000000000000000000000000000000000000000000008152600401611817919061246b565b60405180910390fd5b505b5050505050565b606060405180602001604052806000815250905090565b60606000600161184f84611e5d565b01905060008167ffffffffffffffff81111561186e5761186d6127d3565b5b6040519080825280601f01601f1916602001820160405280156118a05781602001600182028036833780820191505090505b509050600082602083010190505b600115611903578080600190039150507f3031323334353637383961626364656600000000000000000000000000000000600a86061a8153600a85816118f7576118f6612fb6565b5b049450600085036118ae575b819350505050919050565b60007f80ac58cd000000000000000000000000000000000000000000000000000000007bffffffffffffffffffffffffffffffffffffffffffffffffffffffff1916827bffffffffffffffffffffffffffffffffffffffffffffffffffffffff191614806119d957507f5b5e139f000000000000000000000000000000000000000000000000000000007bffffffffffffffffffffffffffffffffffffffffffffffffffffffff1916827bffffffffffffffffffffffffffffffffffffffffffffffffffffffff1916145b806119e957506119e882611fb0565b5b9050919050565b60006002600083815260200190815260200160002060009054906101000a900473ffffffffffffffffffffffffffffffffffffffff169050919050565b8080611a665750600073ffffffffffffffffffffffffffffffffffffffff168273ffffffffffffffffffffffffffffffffffffffff1614155b15611b9a576000611a768461106b565b9050600073ffffffffffffffffffffffffffffffffffffffff168373ffffffffffffffffffffffffffffffffffffffff1614158015611ae157508273ffffffffffffffffffffffffffffffffffffffff168173ffffffffffffffffffffffffffffffffffffffff1614155b8015611af45750611af28184610f39565b155b15611b3657826040517fa9fbf51f000000000000000000000000000000000000000000000000000000008152600401611b2d919061246b565b60405180910390fd5b8115611b9857838573ffffffffffffffffffffffffffffffffffffffff168273ffffffffffffffffffffffffffffffffffffffff167f8c5be1e5ebec7d5bd14f71427d1e84f3dd0314c0f7b2291e5b200ac8c7c3b92560405160405180910390a45b505b836004600085815260200190815260200160002060006101000a81548173ffffffffffffffffffffffffffffffffffffffff021916908373ffffffffffffffffffffffffffffffffffffffff16021790555050505050565b600080611bfe846119f0565b9050600073ffffffffffffffffffffffffffffffffffffffff168373ffffffffffffffffffffffffffffffffffffffff1614611c4057611c3f81848661201a565b5b600073ffffffffffffffffffffffffffffffffffffffff168173ffffffffffffffffffffffffffffffffffffffff1614611cd157611c82600085600080611a2d565b6001600360008373ffffffffffffffffffffffffffffffffffffffff1673ffffffffffffffffffffffffffffffffffffffff168152602001908152602001600020600082825403925050819055505b600073ffffffffffffffffffffffffffffffffffffffff168573ffffffffffffffffffffffffffffffffffffffff1614611d54576001600360008773ffffffffffffffffffffffffffffffffffffffff1673ffffffffffffffffffffffffffffffffffffffff168152602001908152602001600020600082825401925050819055505b846002600086815260200190815260200160002060006101000a81548173ffffffffffffffffffffffffffffffffffffffff021916908373ffffffffffffffffffffffffffffffffffffffff160217905550838573ffffffffffffffffffffffffffffffffffffffff168273ffffffffffffffffffffffffffffffffffffffff167fddf252ad1be2c89b69c2b068fc378daa952ba7f163c4a11628f55a4df523b3ef60405160405180910390a4809150509392505050565b611e168282610b1d565b611e595780826040517fe2517d3f000000000000000000000000000000000000000000000000000000008152600401611e50929190612fe5565b60405180910390fd5b5050565b600080600090507a184f03e93ff9f4daa797ed6e38ed64bf6a1f0100000000000000008310611ebb577a184f03e93ff9f4daa797ed6e38ed64bf6a1f0100000000000000008381611eb157611eb0612fb6565b5b0492506040810190505b6d04ee2d6d415b85acef81000000008310611ef8576d04ee2d6d415b85acef81000000008381611eee57611eed612fb6565b5b0492506020810190505b662386f26fc100008310611f2757662386f26fc100008381611f1d57611f1c612fb6565b5b0492506010810190505b6305f5e1008310611f50576305f5e1008381611f4657611f45612fb6565b5b0492506008810190505b6127108310611f75576127108381611f6b57611f6a612fb6565b5b0492506004810190505b60648310611f985760648381611f8e57611f8d612fb6565b5b0492506002810190505b600a8310611fa7576001810190505b80915050919050565b60007f01ffc9a7000000000000000000000000000000000000000000000000000000007bffffffffffffffffffffffffffffffffffffffffffffffffffffffff1916827bffffffffffffffffffffffffffffffffffffffffffffffffffffffff1916149050919050565b6120258383836120de565b6120d957600073ffffffffffffffffffffffffffffffffffffffff168373ffffffffffffffffffffffffffffffffffffffff160361209a57806040517f7e27328900000000000000000000000000000000000000000000000000000000815260040161209191906127ae565b60405180910390fd5b81816040517f177e802f0000000000000000000000000000000000000000000000000000000081526004016120d092919061300e565b60405180910390fd5b505050565b60008073ffffffffffffffffffffffffffffffffffffffff168373ffffffffffffffffffffffffffffffffffffffff161415801561219657508273ffffffffffffffffffffffffffffffffffffffff168473ffffffffffffffffffffffffffffffffffffffff16148061215757506121568484610f39565b5b8061219557508273ffffffffffffffffffffffffffffffffffffffff1661217d836110f3565b73ffffffffffffffffffffffffffffffffffffffff16145b5b90509392505050565b828054828255906000526020600020908101928215612218579160200282015b828111156122175782518260006101000a81548173ffffffffffffffffffffffffffffffffffffffff021916908373ffffffffffffffffffffffffffffffffffffffff160217905550916020019190600101906121bf565b5b5090506122259190612229565b5090565b5b8082111561224257600081600090555060010161222a565b5090565b6000604051905090565b600080fd5b600080fd5b60007fffffffff0000000000000000000000000000000000000000000000000000000082169050919050565b61228f8161225a565b811461229a57600080fd5b50565b6000813590506122ac81612286565b92915050565b6000602082840312156122c8576122c7612250565b5b60006122d68482850161229d565b91505092915050565b60008115159050919050565b6122f4816122df565b82525050565b600060208201905061230f60008301846122eb565b92915050565b600081519050919050565b600082825260208201905092915050565b60005b8381101561234f578082015181840152602081019050612334565b60008484015250505050565b6000601f19601f8301169050919050565b600061237782612315565b6123818185612320565b9350612391818560208601612331565b61239a8161235b565b840191505092915050565b600060208201905081810360008301526123bf818461236c565b905092915050565b6000819050919050565b6123da816123c7565b81146123e557600080fd5b50565b6000813590506123f7816123d1565b92915050565b60006020828403121561241357612412612250565b5b6000612421848285016123e8565b91505092915050565b600073ffffffffffffffffffffffffffffffffffffffff82169050919050565b60006124558261242a565b9050919050565b6124658161244a565b82525050565b6000602082019050612480600083018461245c565b92915050565b61248f8161244a565b811461249a57600080fd5b50565b6000813590506124ac81612486565b92915050565b600080604083850312156124c9576124c8612250565b5b60006124d78582860161249d565b92505060206124e8858286016123e8565b9150509250929050565b6000806040838503121561250957612508612250565b5b6000612517858286016123e8565b92505060206125288582860161249d565b9150509250929050565b6000819050919050565b61254581612532565b82525050565b6000602082019050612560600083018461253c565b92915050565b600081519050919050565b600082825260208201905092915050565b6000819050602082019050919050565b61259b8161244a565b82525050565b60006125ad8383612592565b60208301905092915050565b6000602082019050919050565b60006125d182612566565b6125db8185612571565b93506125e683612582565b8060005b838110156126175781516125fe88826125a1565b9750612609836125b9565b9250506001810190506125ea565b5085935050505092915050565b6000602082019050818103600083015261263e81846125c6565b905092915050565b60008060006060848603121561265f5761265e612250565b5b600061266d8682870161249d565b935050602061267e8682870161249d565b925050604061268f868287016123e8565b9150509250925092565b6126a281612532565b81146126ad57600080fd5b50565b6000813590506126bf81612699565b92915050565b6000602082840312156126db576126da612250565b5b60006126e9848285016126b0565b91505092915050565b6000806040838503121561270957612708612250565b5b6000612717858286016126b0565b92505060206127288582860161249d565b9150509250929050565b6000806040838503121561274957612748612250565b5b6000612757858286016123e8565b9250506020612768858286016123e8565b9150509250929050565b60006020828403121561278857612787612250565b5b60006127968482850161249d565b91505092915050565b6127a8816123c7565b82525050565b60006020820190506127c3600083018461279f565b92915050565b600080fd5b600080fd5b7f4e487b7100000000000000000000000000000000000000000000000000000000600052604160045260246000fd5b61280b8261235b565b810181811067ffffffffffffffff8211171561282a576128296127d3565b5b80604052505050565b600061283d612246565b90506128498282612802565b919050565b600067ffffffffffffffff821115612869576128686127d3565b5b6128728261235b565b9050602081019050919050565b82818337600083830152505050565b60006128a161289c8461284e565b612833565b9050828152602081018484840111156128bd576128bc6127ce565b5b6128c884828561287f565b509392505050565b600082601f8301126128e5576128e46127c9565b5b81356128f584826020860161288e565b91505092915050565b600067ffffffffffffffff821115612919576129186127d3565b5b602082029050602081019050919050565b600080fd5b600061294261293d846128fe565b612833565b905080838252602082019050602084028301858111156129655761296461292a565b5b835b8181101561298e578061297a888261249d565b845260208401935050602081019050612967565b5050509392505050565b600082601f8301126129ad576129ac6127c9565b5b81356129bd84826020860161292f565b91505092915050565b6000806000606084860312156129df576129de612250565b5b60006129ed8682870161249d565b935050602084013567ffffffffffffffff811115612a0e57612a0d612255565b5b612a1a868287016128d0565b925050604084013567ffffffffffffffff811115612a3b57612a3a612255565b5b612a4786828701612998565b9150509250925092565b612a5a816122df565b8114612a6557600080fd5b50565b600081359050612a7781612a51565b92915050565b60008060408385031215612a9457612a93612250565b5b6000612aa28582860161249d565b9250506020612ab385828601612a68565b9150509250929050565b600067ffffffffffffffff821115612ad857612ad76127d3565b5b612ae18261235b565b9050602081019050919050565b6000612b01612afc84612abd565b612833565b905082815260208101848484011115612b1d57612b1c6127ce565b5b612b2884828561287f565b509392505050565b600082601f830112612b4557612b446127c9565b5b8135612b55848260208601612aee565b91505092915050565b60008060008060808587031215612b7857612b77612250565b5b6000612b868782880161249d565b9450506020612b978782880161249d565b9350506040612ba8878288016123e8565b925050606085013567ffffffffffffffff811115612bc957612bc8612255565b5b612bd587828801612b30565b91505092959194509250565b60008060408385031215612bf857612bf7612250565b5b6000612c068582860161249d565b9250506020612c178582860161249d565b9150509250929050565b7f4e487b7100000000000000000000000000000000000000000000000000000000600052602260045260246000fd5b60006002820490506001821680612c6857607f821691505b602082108103612c7b57612c7a612c21565b5b50919050565b7f4e6f7420746865206f776e657200000000000000000000000000000000000000600082015250565b6000612cb7600d83612320565b9150612cc282612c81565b602082019050919050565b60006020820190508181036000830152612ce681612caa565b9050919050565b6000606082019050612d02600083018661245c565b612d0f602083018561279f565b612d1c604083018461245c565b949350505050565b7f4e487b7100000000000000000000000000000000000000000000000000000000600052601160045260246000fd5b6000612d5e826123c7565b91507fffffffffffffffffffffffffffffffffffffffffffffffffffffffffffffffff8203612d9057612d8f612d24565b5b600182019050919050565b600081905092915050565b6000612db182612315565b612dbb8185612d9b565b9350612dcb818560208601612331565b80840191505092915050565b6000612de38284612da6565b915081905092915050565b6000612dfa8285612da6565b9150612e068284612da6565b91508190509392505050565b7f4e487b7100000000000000000000000000000000000000000000000000000000600052603260045260246000fd5b7f4d65646963616c4e46543a20536f756c626f756e6420746f6b656e2c2063616e60008201527f6e6f74207472616e736665720000000000000000000000000000000000000000602082015250565b6000612e9d602c83612320565b9150612ea882612e41565b604082019050919050565b60006020820190508181036000830152612ecc81612e90565b9050919050565b600081519050919050565b600082825260208201905092915050565b6000612efa82612ed3565b612f048185612ede565b9350612f14818560208601612331565b612f1d8161235b565b840191505092915050565b6000608082019050612f3d600083018761245c565b612f4a602083018661245c565b612f57604083018561279f565b8181036060830152612f698184612eef565b905095945050505050565b600081519050612f8381612286565b92915050565b600060208284031215612f9f57612f9e612250565b5b6000612fad84828501612f74565b91505092915050565b7f4e487b7100000000000000000000000000000000000000000000000000000000600052601260045260246000fd5b6000604082019050612ffa600083018561245c565b613007602083018461253c565b9392505050565b6000604082019050613023600083018561245c565b613030602083018461279f565b939250505056fea264697066735822122043c0b0d8f686ed940f8653d3da07256a31599537206b8ac48b4b03d72659d92c64736f6c63430008140033",
  "linkReferences": {},
  "deployedLinkReferences": {}
}